:020000041000EA
:1000000000B5324B212058609868022188439860DF
:10001000D860186158612E4B002199600221596106
:100020000121F02299502B49196001219960352056
:1000300000F044F80222904214D00621196600F024
:1000400034F8196E01211966002018661A6600F04E
:100050002CF8196E196E196E052000F02FF8012189
:100060000842F9D1002199601B49196000215960AB
:100070001A491B48016001219960EB211966A021F2
:10008000196600F012F800219960164914480160C1
:100090000121996001BC002800D000471248134993
:1000A000086003C880F30888084703B5996A0420EC
:1000B0000142FBD001200142F8D103BD02B5186610
:1000C0001866FFF7F2FF186E186E02BD00000240BE
:1000D000000000180000070000035F00212200005C
:1000E000F4000018222000A00001001008ED00E03C
:1000F00000000000000000000000000074B24E7A12
:1001000000200420F7010010C3010010C5010010F9
:10011000C1010010C1010010C1010010C101001097
:10012000C1010010C1010010C1010010C701001081
:10013000C1010010C1010010C9010010CB01001065
:10014000CD010010CD010010CD010010CD01001037
:10015000CD010010CD010010CD010010CD01001027
:10016000CD010010CD010010CD010010CD01001017
:10017000CD010010CD010010CD010010CD01001007
:10018000CD010010CD010010CD010010CD010010F7
:10019000CD010010CD010010CD010010CD010010E7
:1001A000CD010010CD010010CD010010CD010010D7
:1001B000CD010010CD010010CD010010CD010010C7
:1001C00000BE00BE00BE00BE00BE00BE00F04BF888
:1001D000103800BEF2EB887164BE00108CBE0010B7
:1001E0003402001090A31AE700202149086006C8D5
:1001F00081F3088810471F48006800282FD10DA4FC
:100200000ECC002902D000F012F8F9E71A491B4A77
:10021000002000E001C19142FCD1194988471949E9
:1002200088471949884700BEFDE701C901C29A42C3
:10023000FBD370478CBE0010C0000020D00C002003
:100240009CCA001000000420000004209CCA00107A
:1002500000100420001004200000000070470B482C
:1002600003F090FE0047EFF30580C0B27047000036
:1002700008ED00E0000000D0D00C0020E8100020C5
:10028000292500100D0300103D26001057560000D0
:1002900006005250ABB360536CB8001006005250C9
:1002A000861C03027CB80010060052505422A29D06
:1002B00084B8001005005250DE65F4689CCA001036
:1002C000F8B5C04610B5064C2378002B07D1054B76
:1002D000002B02D0044800E000BF0123237010BDB2
:1002E000D00D00200000000048AA0010044B10B5FB
:1002F000002B03D00349044800E000BF10BDC046F6
:1003000000000000D40D002048AA001010B51920EC
:1003100000F0ACFFD0231B06802292045A6204F046
:10032000D9FF1949194805F0FDF90321042000F00F
:100330006BFF0321052000F067FF0022012104204C
:1003400000F07AFF00220121052000F075FF7620E1
:1003500000F0A4F8040006E0200000F0D3F8FA2032
:10036000C00001F033FD200000F0A4F80028F3D015
:10037000074B1B68DB6802000649180005F06AFAA3
:10038000012002F05BF9C046801A06000403002039
:100390000C03002048AA001010B5002101F0EAFC6F
:1003A00010BD000070B584B00D0016001C000F22B7
:1003B0006A44107000210091012321000B4805F0D0
:1003C000DDF900280CDB0023009333002A00210014
:1003D000064805F0DFF9002805DB002004B070BDF9
:1003E00001204042FAE701204042F7E704030020E1
:1003F000F0B5CE46474680B583B007008846150065
:100400009946561C300004F09DFD04000770013031
:100410002A00414604F0BAFD002300933300220075
:100420004946084805F0AAF9002808DB200004F036
:100430009BFD002003B0C0BCB946B046F0BD012012
:100440004042F7E70403002010B504000123837045
:100450000F4B43600F4B83600F4BC360417000F044
:10046000A1FD002800D010BD3A230122E254023B36
:100470000432E2540133033AE25402330232E254CA
:1004800025330B32E25421000F3000F0DBFDEAE7A8
:10049000A5030010F10300109903001070B50500CA
:1004A000682004F04FFD04002900FFF7CDFF200075
:1004B00070BD000010B504000100012000F0FFFD38
:1004C00000280BD10C48E3689847210048312200EE
:1004D000072000F068FE00280BD110BD074B1B68F9
:1004E000DB6802000649180005F0B4F9012040421B
:1004F000F3E701204042F0E7409C00000C0300209D
:100500007CAA0010F0B585B00400416D006D04F0C8
:10051000BFF8051C114A124BA06CE16C03F0F7FF09
:1005200004F0B6F8061CA06DE16D04F0B1F8071CEC
:10053000281C04F04DFC04000D00381C04F048FC9D
:1005400002900391301C04F043FC009001912200C2
:100550002B00044804F0B2FE05B0F0BD7B14AE479A
:10056000E17A843FA4AA00100023C3561C229343BF
:10057000C97889000A4013430370704700228256ED
:100580001F2313400A79520113430370704700235D
:10059000C3561C229343097889000A401343037011
:1005A0007047002282561F2313404A78520113439A
:1005B00003707047027807231A408A70827892107D
:1005C0001A400A70827852094A70C2789210134019
:1005D000CB70C3785B090B7170470000F0B5C6465D
:1005E00000B582B08846406804F006F804000D00AB
:1005F00000223A4B03F08BFF00900191434618888C
:1006000003F0FAFF06000F000022354B03F07FFFD6
:1006100002000B000098019903F049FF009001913E
:1006200043460220185E03F0EBFF009A019B03F0A3
:100630006EFF0090019100222A4B2000290003F058
:1006400066FF04000D000022274B3000390003F044
:100650005EFF02000B002000290003F028FF0200CB
:100660000B0003F054FF04000D0043460420185E05
:1006700003F0C6FF02000B002000290003F047FF33
:1006800002000B000098019903F01AFF04000D000E
:1006900003F0CEFF434658620022144B200029008D
:1006A00003F017FF04000D000022114B03F07AFF46
:1006B00000280AD100220F4B2000290003F088FFF8
:1006C000002804D000240B4D01E00024084D200038
:1006D000290002B080BCB846F0BDC0460000103F03
:1006E0000000503F0000E03E0000203F0000B4400A
:1006F000000044C000405540F0B5CE46474680B5A6
:1007000083B081468846486A03F07AFF0022854B11
:1007100003F0FDFE0022844B03F0C9FE04000D002F
:1007200002000B0003F0F3FE06000F00434610200A
:10073000185E03F065FF02000B003000390003F083
:10074000E6FE0022FC239B0503F0E1FE06000F00FD
:1007500043460E20185E03F053FF22002B0003F0E7
:10076000D6FE02000B0003F0ABFE32003B0003F0AC
:10077000A7FE00226D4B03F0CAFE06000F004346A1
:100780000C20185E03F03CFF0022694B03F0BFFE13
:1007900002000B003000390003F092FE009001913E
:1007A00043460A20185E03F02BFF22002B0003F0C3
:1007B000AEFE22002B0003F0AAFE0022FB239B05C5
:1007C00003F0A5FE06000F0043460820185E03F064
:1007D00017FF22002B0003F09AFE32003B0003F0CB
:1007E0006FFE0022FB239B0503F091FE0022FC23F9
:1007F0009B0503F08CFE00224E4B03F061FE0400CB
:100800000D004346D88803F0F7FE02000B002000DD
:10081000290003F07CFE04000D000022002303F0F9
:10082000D7FE002871D04B46186803F0E5FE0200A1
:100830000B000020404903F03AFE06000F000022A2
:100840003E4B0098019903F062FE02000B0030005D
:10085000390003F02CFE0022394B03F058FE220031
:100860002B0003F036FE04000D0043461620185EF0
:1008700003F0C6FE22002B0003F049FE22002B00ED
:1008800003F045FE0022F8239B0503F040FE06001E
:100890000F0043461420185E03F0B2FE22002B0026
:1008A00003F035FE0022FC239B0503F030FE02001E
:1008B0000B003000390003F003FE06000F00434632
:1008C0001220185E03F09CFE02000B00300039007D
:1008D00003F0F6FD00221B4B03F019FE22002B0053
:1008E00003F0EEFD04000D000022174B03F05AFE4A
:1008F000002813D10022154B2000290003F068FEC8
:10090000002804D00024114D01E000240E4D2000E9
:10091000290003B0C0BCB946B046F0BD00240A4D62
:10092000F5E7C0460000E03F0040EF400000D03F48
:100930000000F0400000F03F000030410000303F78
:10094000006AB8400000B03F004CDD4000DBFA40D8
:10095000F0B5CE46474680B587B081468846486A9E
:1009600003F04EFE0022564B03F0A1FD06000F00DF
:1009700043461E20185E03F043FE0022514B03F055
:10098000C6FD04000D0043462020185E03F038FE2B
:1009900000224D4B03F0BBFD32003B0003F0B7FDDE
:1009A00002000B002000290003F08AFD04000D0066
:1009B0004B46986803F020FE22002B0003F077FDE1
:1009C0000090019143461A20185E03F019FE0022A0
:1009D0003E4B03F09CFD029003914346187F03F0C9
:1009E0000BFE00223A4B03F092FD32003B0003F075
:1009F0008EFD0022374B03F063FD04000D0022231F
:100A00004146C85603F0FCFD0022314B03F07FFD48
:100A100032003B0003F07BFD22002B0003F077FD4A
:100A200000222C4B03F04CFD04900591029A039B8D
:100A30000098019903F06BFD06000F00049A059BD6
:100A40002000290003F063FD02000B003000390094
:100A500003F05DFD04000D004346187E03F0CCFD5D
:100A600022002B0003F053FD0022FB239B0503F023
:100A70004EFD02000B000020164903F018FD220075
:100A80002B0003F044FD04000D000022124B03F084
:100A90009FFD00280AD1002200232000290003F036
:100AA00081FD002804D00024002501E000240A4D27
:100AB0002000290007B0C0BCB946B046F0BDC04612
:100AC00000C0F240000050400000103F0000F03E27
:100AD0000000503E0000F03F00005940F0B50124F6
:100AE00007E065006E1E075D8F55165D4E5501349B
:100AF000E4B29C42F5D3F0BD42781202037813436E
:100B00000B82C2781202837813434B82427912021D
:100B1000037913438B82C279120283791343CB8208
:100B2000427A1202037A13430B83C27A1202837A47
:100B300013434B83427B1202037B13438B83C27BA1
:100B40001202837B1343CB83427C1202037C134348
:100B50000B84C27C1202837C13434B84427D1202BD
:100B6000037D13438B84C27D1202837D1343CB84A8
:100B7000427E2823CA54704710B542781202037887
:100B800013434B8582782C23CA540323C3569BB24C
:100B90001B011BB204790F2222401343CB8505238E
:100BA000C3569BB21B011BB20279120913430B8679
:100BB000062282563223CA5410BD03000800184092
:100BC000194200D00120704700280DD04368002B47
:100BD0000DD08368002B0DD0C368002B01D00020FE
:100BE000704701204042FBE701204042F8E7012026
:100BF0004042F5E701204042F2E7F0B5C64600B5B5
:100C000005000F0090461C001800FFF7DDFF061ED0
:100C100016D1002F17D0A378012B03D0802040429B
:100C20000543EDB263784246390028006568A8475D
:100C30003D23E054002809D1300080BCB846F0BD07
:100C400001267642F8E701267642F5E70426764249
:100C5000F2E730B589B00500002301931622002188
:100C600002A804F08DF92B001A2201A98820FFF7B1
:100C7000C4FF041E02D0200009B030BD290001A825
:100C8000FFF73AFF2B00072201A9E120FFF7B5FF8C
:100C9000041EF0D1290001A8FFF76EFFEBE7F0B5C5
:100CA000D6464F464646C0B586B007008946160070
:100CB00098460A2A00D90A264046FFF785FF824651
:100CC000002837D1002F39D04B46002B3AD0002EC8
:100CD0003CD01A7801AB1A7043469B78012B09D09F
:100CE000002405E03B5D7F251D403D550134E4B205
:100CF000A642F7D8012E13D8B2B243465B783878B3
:100D000001A94446A468A0473D234246D054002888
:100D100020D1504606B0E0BCBA46B146A846F0BD68
:100D200033004A4601A93800FFF7D8FE7200013AA5
:100D300092B2E2E701235B429A46EAE701235B4273
:100D40009A46E6E701235B429A46E2E703235B42C9
:100D50009A46DEE704235B429A46DAE710B582B092
:100D600003000C006A46501DF22202709A78072395
:100D700013406A46D11D0B7023000122FFF78FFF3D
:100D8000002801D002B010BD6B46F4225A71230036
:100D9000F33A69460631F430FFF72FFF0028F1D10E
:100DA000230001226946063168460530FFF777FFC8
:100DB000E8E770B582B006000D0014006B46F4221F
:100DC000DA712300F33A69460631F420FFF715FF84
:100DD00000280BD1F3070BD4B3070FD42300012253
:100DE0006946063168460730FFF759FF02B070BD0B
:100DF00029006B46981DFFF7CAFBEDE729006B46FB
:100E0000981DFFF7CEFBE9E770B504000D00160052
:100E1000430703D40120A30705D170BD11002800AA
:100E2000FFF79CFFF7E7320029002000FFF7C1FF22
:100E3000F3E770B582B006000D0014006B46F52292
:100E4000DA712300F43A69460631F520FFF7D5FE42
:100E500000280BD133070BD4F3060FD42300012253
:100E60006946063168460730FFF719FF02B070BDCA
:100E700029006B46981DFFF777FBEDE729006B46CD
:100E8000981DFFF77BFBE9E770B504000D000A0031
:100E900001001F20FFF7B8FF002800D070BD2A0016
:100EA00021001F30FFF7C5FFF8E730B583B005001C
:100EB0000C006B46F422DA710B00F33A69460631F6
:100EC000F420FFF79AFE002801D003B030BD6B4636
:100ED0009B79032293435BB2033005401D436B466D
:100EE0009D712300023A6946063168460730FFF7D4
:100EF000D6FEEAE770B504000D000800FFF764FEB7
:100F000000280CD1002C0DD02B0001222100F43040
:100F1000FFF773FE227803231340237070BD012076
:100F20004042FBE701204042F8E730B583B00400BF
:100F30006B46E022DA716B4600229A716B46B6323C
:100F40005A71FFF741FE002801D003B030BD2300E5
:100F500001226946053168460730FFF7A0FE0028E8
:100F6000F3D1052500E01D00FA20C000E368984792
:100F70002300012269460631F320FFF73EFE0028D8
:100F800008D16B1EDBB2002D04D06A4606321278FF
:100F9000D207E8D46B4606331B78DB07D5D506208D
:100FA0004042D2E770B582B006006B460022DA718B
:100FB000FFF70AFE041E28D0200002B070BD3000EA
:100FC000FFF747FE04001BE0FA208000F368984713
:100FD000013DEDB2002D13D03300012269460731E7
:100FE000D020FFF70AFE041EEED16B4607331B78B4
:100FF000602BE9D133703000FFF797FF041EDED07D
:10100000002DD9D102246442D6E70525E2E710B5C8
:1010100084B004000300042203A9F220FFF7EDFDD1
:10102000002801D004B010BD01A903A8FFF7C2FA3F
:101030002000FFF77AFF0028F4D1210001A8FFF774
:1010400023FFEFE770B582B005000E000800FFF740
:10105000BBFD041E02D0200002B070BD31006B4603
:10106000D81DFFF747FF041E04D16B4607331B78DA
:10107000002B17D1002CEED129000720FFF79DFD92
:10108000002814D1002CE6D129001820FFF795FD87
:101090000028E0D03100383132002800FFF7C9FEC7
:1010A0000400D8E73000FFF7B2FF0400E2E73100A8
:1010B000383132002800FFF7A7FE0400E2E730B520
:1010C00083B004000D000800FFF77EFD002801D06A
:1010D00003B030BD29006B46D81DFFF70BFF002879
:1010E00004D16B4607331B78002B06D10028EFD1C3
:1010F00029002000FFF7D9FEEAE72800FFF787FF65
:10110000F4E710B503781B034478240182781209B0
:10111000234313430B60C3781B03047924014279F2
:101120001209234313434B6083791B02C279134393
:101130008B6010BDF8B507000D0014001E000029DB
:1011400026D0002A27D0002B28D000220023A2601E
:10115000E3602260636022616361430711D1FB0792
:1011600005D531002800FFF7C7FA206061607B07D2
:1011700017D531002800FFF7EBFB206161610020EB
:10118000F8BD31002800FFF729FAA060E160E6E72A
:1011900001204042F4E701204042F1E701204042B3
:1011A000EEE70020ECE770B586B005000E001400F5
:1011B0000023049305930C22002101A803F0E0FE14
:1011C0002000FFF701FD002817D1002E18D02300C2
:1011D000082204A9F730FFF710FD002801D006B05F
:1011E00070BD01A904A8FFF78CFF23001033320063
:1011F00001A92800FFF79EFFF1E701204042EEE73A
:1012000001204042EBE7000010B58300084A9446F5
:1012100063441C6840226240C02414408022520172
:1012200013431C60C000034B9C466044416010BDEA
:1012300004C001400040014080000B4B9C466044CC
:1012400000290DD00823002A0CD004221343026881
:1012500053400C2213408022520110430360704718
:101260000023F0E70022F1E704C0014010B501239C
:101270008340D0221206936293610521FFF7C4FFD9
:1012800010BD0000EFF3108072B6034B1B68002BFB
:10129000FBD0BFF35F8F70472C0100D0BFF35F8F8F
:1012A000024B00221A6080F3108870472C0100D096
:1012B000F8B506000C001500FFF7E4FFE308F71887
:1012C000F15C07222240012393400B4205D1DBB29F
:1012D0000B433B70FFF7E2FFF8BD2100280001F04F
:1012E000CFF90000034B1B6802201840431E9841B1
:1012F000C0B2704700C00640002307E0054A9A18B4
:101300009200BFF35F8F0021116001331F2BF5D9CD
:101310007047C04640000034054A1078431CDBB2D9
:101320001370172B02D9130010221A707047C04691
:101330005802002070B504000D00062001F0BAFA32
:10134000C000290002F072FEC60908D00E4B9E4272
:1013500017D87F23184001303500460800E00125EA
:101360006562A6622C348020800104430023236040
:10137000062001F09FFA8000A901891902F056FEAB
:1013800070BD0026014DEBE7FEFF0000FFFF0000EF
:10139000002909D00A22064B9C466044434258412A
:1013A0004000044BC252704780225200F3E7C0460F
:1013B0000080FCBFDC10002070B505000C0006208A
:1013C00001F078FA002829D0164B9D4227D08022C0
:1013D000D203154B1A60154B1A60154B9B68110010
:1013E0009943FAD100212800FFF7D2FF21002800FD
:1013F000FFF7A0FF2C002C34E96A60224A406E21DE
:10140000114080225201224311600A4B2B6380233A
:101410009B01234310221A600323AB6470BD80221A
:101420001204D6E70080034000E0004000F00040D6
:1014300000C000400103000070B505000C0008006A
:1014400000F014FD200000F01DFE0849200000F00F
:101450005DFDFFF761FF064B9C46604480006860BD
:101460002C75A400034BE55070BDC0467D170010DD
:1014700040000034B40E00200A4B1A68EFF31081CC
:1014800072B61368002BFCD0BFF35F8F054B1B684F
:10149000BFF35F8F00221A6081F3108840BF0020E5
:1014A00000217047C810002010B5002922D0036821
:1014B0001B7B99421ED8174B9C46614409018368E7
:1014C0009C4661440C684968002A19D003681B7B5C
:1014D0009A4215D883680F488446624412019A18CC
:1014E00010685368020001208B4201D80ED0002002
:1014F000C0B210BD084B094A3B21094801F0A2F8CF
:10150000054B064A3B21064801F09CF8A242EFD861
:10151000EDE7C046FFFFFF0F14AB001098AD0010C1
:10152000DCAA001010B500291ED0037B99421BD8FD
:101530004B005B18033B0468A4466344002919D0A0
:10154000002A1DD0914221D0002A25D0047BA2423E
:1015500022D8046850008018033820188170197848
:1015600000291FD11A7010BD104B114A6921114872
:1015700001F068F8104B114A70310E4801F062F822
:101580000F4B0E4A71210B4801F05CF80D4B0B4AD2
:101590007221084801F056F8044B054A69210548B4
:1015A00001F050F841701A70DDE7C04648AB0010FA
:1015B00004AE001064AB0010B0AB0010E0AD001042
:1015C000BCAB0010C8AB001070B506000D001400D5
:1015D000002914D0002A14D0806873689847002826
:1015E00006D0220029003000FFF79CFF280007E00A
:1015F0002A0021003000FFF795FF200000E01000D6
:1016000070BD0800FCE70000F0B583B00500009253
:1016100001930AAB1C780BAB1F78002C26D0036813
:101620005A7B944207D10123002B19D1002C3BD1C6
:10163000200003B0F0BD002C0CD01A7B944209D8D6
:101640001A6863001B19033BD3189B78002BEBD05F
:101650000123E9E73E4B3F4A69213F4800F0F2FF92
:101660003E4B3F4A65213F4800F0ECFF03689C7BFE
:10167000002CDBD012D01A7B94420FD862001219D2
:10168000033A19688C46624451789973002900D155
:10169000D9730023937053701370C7E72C4B2D4AF6
:1016A00069212D4800F0CEFF002C3AD02B681B7B1F
:1016B0009C4236D82C4BE3181B01AA68944663441D
:1016C000009A1A60019A5A60089A9A60099ADA6038
:1016D0002E68002C2BD030D0337B9C422DD8630059
:1016E0001B19033B32689446634400229A705A7077
:1016F0001A70717B22003000FFF766FF707384421E
:1017000000D095E7287D009A019B00F047FC061E5B
:1017100001D0002F17D00C9B002B00D188E71E7042
:1017200086E7124B124A3B210E4800F08BFF114B0B
:10173000114AA621084800F085FF054B054A69219A
:10174000054800F07FFF2868210000F071FEE2E705
:1017500048AB001004AE001064AB0010E0AB00100A
:1017600010AE0010DCAA0010FFFFFF0F14AB00103A
:1017700098AD0010D8AA0010F4AD0010F0B5DE4608
:1017800057464E464546E0B58BB009900023089376
:101790008200B24BD658370032E0B14BB14A3D21FE
:1017A000B14800F04FFFB14BB14A3B21B14800F0C6
:1017B00049FFB14BB14A8C21AE4800F043FFB04B1A
:1017C000AE4A9021AB4800F03DFFA84BAD4A402106
:1017D000A84800F037FF2A686B68099800F0DEFB24
:1017E00000239A4698467B68BFF35F8F00221A60F9
:1017F00086F310884346002B51D1002800D126E102
:1018000000F040FB02000B1EC7DB00200021069009
:1018100007917868EFF3108672B601680029FCD052
:10182000BFF35F8F396888464C7B002C32D0BAD02A
:10183000097B8C42B7D8944965182D01B9688C464C
:10184000654428686968801A99410029C3DC01D180
:101850000028C0D10021404600F0E0FDA042A8D100
:101860002A686B6806920793AB689846EB689A46BD
:101870004346002BA3D0002CA7D03B681B7B9C4287
:10188000A3D8631EFA68D35C08931B02184338611F
:101890000020A8E700239A4698460020A3E7089B6B
:1018A0001B022343994651461800C04705000E000D
:1018B0007A68EFF3108B72B6136859424B41D9B274
:1018C000002BF9D1BFF35F8F002E26DB002E52DDF7
:1018D0003B69002B53D04B4572D100F0D3FA020084
:1018E0000B1E73DB0100180052197341984202D895
:1018F00004D1914202D901225242D317002B6BDB53
:101900000021049101310391029451460191414615
:1019100000913800FFF778FE49E03B69002BD5D0F5
:101920004B451CD1069A079B10001900521BB3416E
:10193000994202D804D1904202D901225242D317CF
:10194000002B12DB002104910131039102945146D6
:101950000191414600913800FFF756FE27E04B4BBE
:10196000464A9F21434800F06DFE3D4B3D4A3D21D4
:101970003D4800F067FE002E01D1002DA8D13A6845
:10198000002C45D0537B9C422CD1012100293FD112
:10199000D37B002B42D1D473002C52D03B681B7BED
:1019A0009C424ED8FA68013C135D01331355002365
:1019B0003B617A68BFF35F8F13608BF310881FE77A
:1019C000324B2E4AA2212B4800F03CFE244B254AE4
:1019D0003D21254800F036FE214B224A3D21224878
:1019E00000F030FE002C0DD0137B9C420AD863001F
:1019F0001B19033B1068844663449B78002BC5D0B9
:101A00000121C3E7224B234A6921234800F01AFE33
:101A1000224B234AF721204800F014FE002B0AD065
:101A2000117B8B4207D85900CB18033B11688C46B9
:101A300063445C70AFE7164B164A6921164800F004
:101A400001FE0A4B0F4A40210A4800F0FBFD0BB093
:101A5000F0BCBB46B246A946A046F0BDB40E00207D
:101A600008AC001064AD001024AC001014AB0010E2
:101A700098AD0010DCAA00106CAC00107CAD00101A
:101A800084AC0010BCAD0010FFFFFF0F90AC001045
:101A900048AB001004AE001064AB0010CCAC0010DA
:101AA000D0AD001010B50A4B5B68002B04D00A21A2
:101AB000084800F007FB10BD054C2300064A102122
:101AC000206800F0CBFB03212000FFF7B5FCEEE718
:101AD0005C020020C8100020A914001010B5064BAD
:101AE0005B68002B01D0044810BD044B044A5C2104
:101AF000044800F0A7FDC0465C020020F0AC0010D6
:101B0000A4AD0010DCAA0010F0B5DE4657464E46E4
:101B10004546E0B58BB0804616001F00149B9A46E0
:101B2000159B994616AB1B789B461F2302AA944629
:101B3000634400221A7032E0002809D0424612683D
:101B4000127B904204D8421E4146C9688A5C48E034
:101B5000434B444A4021444800F074FD0798002B51
:101B600075D05B46002B72D04946D04704000D006B
:101B700003000B4300D171E0002946DB00F082F93D
:101B800006000F1E55DB36196F41B94202D804D149
:101B9000B04202D901267642F717002F4FDB4346A9
:101BA0005A68EFF3108472B6136859424B41D9B2A8
:101BB0000791002BF8D1BFF35F8F1F3302AA944621
:101BC000634404930023039302934B4601935346CB
:101BD000009332003B004046FFF716FD031EABD1D9
:101BE000020041464968BFF35F8F00250D6084F312
:101BF0001088002B29D01F2302A98C4663441B7830
:101C0000002BABD112021043A9E732003B00361B78
:101C1000AF41BB4202D804D1B24202D9012676427A
:101C2000F717002FBBDA114B114A3D21114800F084
:101C300009FD0E4B0E4A3D210E4800F003FD0B4BF3
:101C40000B4A3D210B4800F0FDFC012040420BB047
:101C5000F0BCBB46B246A946A046F0BD0798F6E7E1
:101C600014AB0010BCAD0010DCAA001008AC0010D2
:101C700064AD001024AC0010F0B587B006000F0072
:101C8000FEF7F1FA00281FD106246442E517A419D3
:101C90007D41BD4202D803D1B44201D900240025C0
:101CA000002D14DB0494059500F0ECF802000B1EE7
:101CB00013DBA41A9D41002D17DC14D0300039002D
:101CC00000F0ECF807B0F0BD234800F0D9FC234B3E
:101CD000234A3D21234800F0B5FC204B204A3D21FA
:101CE000204800F0AFFC002CE8D0FFF7F7FE0023FF
:101CF000029301931C4B0093049A059BFFF704FF8A
:101D0000002818DADAE7002300E00023002BD5D101
:101D1000164B1A68EFF3108172B61368002BFCD0D3
:101D2000BFF35F8F114B1B68BFF35F8F00221A60F8
:101D300081F3108820BF0499059A0D4B5B6A9A4283
:101D4000E3D80B48806A884203D29A42DBD0012351
:101D5000DCE70123DAE7C04614AD001008AC001040
:101D600064AD001024AC001079140010C8100020DD
:101D700000400540F8B504000D0000F083F80200B3
:101D80000B1E10DB20002900801859418B4202D81D
:101D900004D1824202D901204042C117002908DB48
:101DA000FFF76AFFF8BD064B064A3D21064800F0E2
:101DB00049FC034B034A3D21034800F043FCC04665
:101DC00008AC001064AD001024AC001010B5FA226D
:101DD00092000023002102F0E1FFFFF7CBFF10BDCE
:101DE00070B5EFF305833F2018401038EFF3108CE7
:101DF00072B6194B1B68002BFBD0BFF35F8F01231A
:101E000019008140154A5163154A12781400C440E4
:101E1000234214D0114B5C6A8300124D5B599C42E3
:101E200006D38300104C1B598A430D490A7007E002
:101E30000A4A031D9B0099589950002300E0002393
:101E4000BFF35F8F044A002111608CF31088002BD0
:101E500000D0984770BDC046280100D00040054022
:101E6000E6100020CC1000202C0E002010B5010040
:101E7000024A0348FFF71CFA10BDC04630AE0010FE
:101E8000E4100020044B5B6A034A906A1900536A0D
:101E90009942F9D17047C04600400540084B5B6A43
:101EA00001E0074B5B6A8B42FBD301E0044B5B6AAA
:101EB0008B4203D1024B9B6A8342F7D37047C046E3
:101EC0000040054070B504000D00FFF7DBFF020085
:101ED0000B0020002900801859418B4202D804D100
:101EE000824202D901204042C117002902DBFFF7DC
:101EF000D5FF70BD024B034A3D21034800F0A2FB11
:101F000008AC0010D8AE001024AC001070B504006E
:101F10000D00EFF3108672B61B4B1B68002BFBD035
:101F2000BFF35F8F002D1CD0200000F03BFD174B4E
:101F300083420BD01900200000F03CFD012120005D
:101F400000F028FD0123A340114A1360A400114BA7
:101F5000E550BFF35F8F0C4B00221A6086F31088A8
:101F600070BDA2000B4B0021D1500122A2400A49B2
:101F70000B7893430B700549200000F045FD0021CC
:101F8000200000F007FDE4E7280100D0E11D00106B
:101F9000386005402C0E0020E6100020F0B5DE462B
:101FA00000B584B00400150001921E000293FFF7F3
:101FB00069FF03958E4202D84ED185424CD9EFF38A
:101FC000108B72B6274B1B68002BFBD0BFF35F8FC3
:101FD000254A17780125A540EBB23B431370234BEC
:101FE0005D63221D92000199D150A2002049029800
:101FF00050501B6A2B4212D11C4B1B6C2B4208D039
:102000000020BFF35F8F174B00221A608BF31088FC
:1020100023E0184B184AC121184800F013FBFFF7C2
:1020200031FF8E4214D802D1039B834210D80E4B4D
:102030001B78BB420ED00D4B1D625D631F20044018
:102040000123A3400E4A1360074B1F701E38D8E7C8
:102050000020D6E70120D4E7012004B080BCBB46B5
:10206000F0BDC046280100D0E61000200040054029
:10207000CC10002054AE0010BCAE001078AE0010A2
:1020800080E200E0EFF3108C72B60B4B1B68002B64
:10209000FBD0BFF35F8F01238340084A13620849D6
:1020A0000A789A430A70BFF35F8F034B00221A60CD
:1020B0008CF310887047C046280100D000400540CE
:1020C000E6100020024B9C46614489000160704785
:1020D0004000003470B504000D00FFF71DF9010049
:1020E0002000FFF7EFFFFF2323716571BFF35F8FC0
:1020F00070BD10B50021FFF7EDFF10BD10B5FF2139
:10210000FFF7E8FF10BD000010B500291ED0037BCB
:1021100099421BD84B005B18033B0468A4466344F8
:10212000002919D0002A1DD0914221D0002A25D0A3
:10213000047BA24222D8046850008018033820187B
:102140008170197800291FD11A7010BD104B114AE7
:102150006921114800F076FA104B114A70310E488F
:1021600000F070FA0F4B0E4A71210B4800F06AFA2A
:102170000D4B0B4A7221084800F064FA044B054AE3
:102180006921054800F05EFA41701A70DDE7C0462B
:1021900048AB0010BCB0001064AB0010B0AB001036
:1021A000A8B00010BCAB0010C8AB001070B50600A2
:1021B0000D001400002914D0002A14D08068736820
:1021C0009847002806D0220029003000FFF79CFF26
:1021D000280007E02A0021003000FFF795FF2000CB
:1021E00000E0100070BD0800FCE7000010B50023FF
:1021F000437301338373037BC3730123027B9A42CE
:1022000014D9002B0CD0027B934209D85A00D21863
:10221000033A01688C4662440133DBB25370EDE748
:102220000B4B0C4A69210C4800F00CFA002A09D02B
:10223000924207D8016853009A18033A8A1800237B
:10224000537010BD024B034A6921034800F0FAF9AC
:1022500048AB0010BCB0001064AB001010B50173A7
:1022600042608360FFF7C2FF10BD000070B504003C
:10227000081E00D170BD002934D0237B994231D88B
:102280004B005B18033B2268944663445A78002A4B
:10229000F0D02DD0237B9A422AD853009B18033BC1
:1022A00021688C4663445D7800215970002825D050
:1022B000237B984222D843001B18033B21688C469D
:1022C00063440021597001002000FFF76FFF0600F2
:1022D00029002000FFF7CAFF020031002000FFF7AD
:1022E00065FFC7E7084B094A6921094800F0AAF9C8
:1022F000054B064A6921064800F0A4F9024B034A3F
:102300006921034800F09EF948AB0010BCB00010F2
:1023100064AB001070B505000C001600002928D031
:102320002DD0037B99422AD84B005B18033B0268EF
:10233000944663445A78002A27D19A78002A2AD1F1
:102340001978FFF793FF0300002E03D0EA7B002AE1
:1023500027D1EC73002B37D1002C49D02B7B9C422A
:1023600046D82B6861000C19033C1C1900236370CC
:1023700070BD224B224A3821224800F063F9224BDB
:10238000224A6921224800F05DF9224B1C4A3A2179
:102390001C4800F057F9204B194A3B21194800F01E
:1023A00051F9002A0AD0297B8A4207D851008A189D
:1023B000033A29688C4662445470CAE7124B134AA8
:1023C0006921134800F03EF9002B0BD02A7B934281
:1023D00008D843001B18033B2A6894466344002234
:1023E0009A70B9E7084B094A6921094800F02AF9AF
:1023F000054B064A6921064800F024F9C8AF0010D1
:1024000094B00010D0AF001048AB0010BCB000106A
:1024100064AB001008B0001030B0001070B50400BC
:102420000A00457B2900FFF775FF6073280070BD27
:1024300070B50400002967D0437B8B420ED0002981
:1024400011D0037B99420ED84B005B18033B026806
:10245000D0188378002B0CD1002056E00121FFF723
:10246000DDFF012051E0294B294A6921294800F06C
:10247000E9F8002B20D0227B93421DD85A00D318B4
:10248000033B2268D2182568EB5C8B421AD0002BE4
:102490001BD0227B934218D85A00D318033B2268E2
:1024A000D21853788B4216D0002BF0D11A4B1B4A0E
:1024B00067211B4800F0C6F8144B154A69211548DE
:1024C00000F0C0F84378137007E0104B104A692100
:1024D000104800F0B7F843785370002383704370BE
:1024E00001222000FFF716FF0200617B814205D028
:1024F0002000FFF75BFE6073012006E0094B074AEE
:102500006D21074800F09EF8002070BD48AB001018
:10251000BCB0001064AB001054B000107CB00010D0
:10252000D0AF00105CB0001070B5264B264A1A6080
:10253000264B274A1A60274B9A68254B9343FAD1BA
:10254000254C01E008CC9847244B9C42FAD300F07C
:1025500031F91E4B224A1A601E4B9B68DB43DB019C
:10256000FAD1204B40229A675A671A67DA661E4CE6
:1025700003E02000FFF7BDFD08341C4B9C4206D24F
:102580006379002BF5D02000FFF7B8FDF4E7184C75
:10259000A168184DC022280002F0F8FCA560FDF7E4
:1025A00062FE002800D000BEFEF7A6FE00F08EFB03
:1025B000FFF778FA104C01E008CC98470F4B9C428B
:1025C000FAD370BD00E00040BFCDFBFE00F000403C
:1025D000FE7F3C0000C00040BC0C0020CC0C002062
:1025E000FFFFFF0100F00140B40C0020BC0C0020F4
:1025F00000ED00E000000020CC0C0020D00C0020FA
:1026000000BEFDE703000A4A1268002A08D0084A03
:102610001068C318074A9A4206D3054A13607047E8
:10262000034A05491160F2E701204042F7E7C0463E
:10263000B00E002000000420E810002010B5FFF7C5
:10264000DFFF000010B582B00C001900002A0CD08A
:10265000084B002A0BD00192009323000200064889
:1026600002F02CFE0120FFF7CBFF044BF1E7034AF9
:10267000F1E7C046C8B00010D8B00010D4B00010C8
:102680000FB400B583B0084802F0E8FD049B002BAE
:1026900007D005A90191180002F0EEFD034802F0F1
:1026A000DDFD0120FFF7ACFF08B1001070AA00109B
:1026B000F8B5DE4657464E464546E0B505000F00E4
:1026C00092460A9A93424ED31A0E91461E020A9AD5
:1026D00000233000494601F0EBFC80466C00641991
:1026E000A4002F4B9C4664446368834200D2606020
:1026F0002B1FDBB29B46012B3BD9C0239B012343FD
:10270000802212011A60AB00264A9958002905D090
:10271000506901F08BFC01300138FDD153465A015C
:1027200023685A40E0231A4080235B0123431A6048
:102730005A46012A28D980239B0123438022120173
:102740001A6043466360424600233000494601F068
:10275000AFFCAD00134B58510120F0BCBB46B24654
:10276000A946A046F8BD104B104A2D211048FFF78E
:1027700069FF012FC1D1C0239B01234303221A60AB
:10278000A368DB07FCD5C9E72168794003220A402A
:102790001A60A2680123BB401342FAD0CBE7C046BF
:1027A000008000403C0E002018B1001070B10010F5
:1027B0002CB1001030B583B00C2000F01FFBFEF7E9
:1027C00091FD00280DD0002304E099002D4A2E48E9
:1027D00088500133092BF8D92A4B2C4A5A6203B08E
:1027E00030BD2B4B00229A6700F010FB294B0122D1
:1027F0001A60274B5B6C012BFBD1274B03221A601D
:10280000234B9B6B012BFBD1022400940533234AFD
:102810000121234800F066FA00940523214A012192
:10282000214800F05FFA214B00930022022104208E
:10283000FFF73EFF1E4D00952B00002201210520D1
:10284000FFF736FF104C00942300002200210720E0
:10285000FFF72EFF00942300002200210820FFF73D
:1028600027FF0A4B00932300002200210920FFF7D5
:102870001FFF00952B00002200210620FFF718FF04
:10288000ADE7C0463C0E0020006CDC021BB7000028
:10289000008000403CB0004030B00040002F68593C
:1028A0000080024000389C1C00C00240001BB700A2
:1028B000405973078000014BC05870473C0E002000
:1028C000074B9B68103080001950BFF35F8FBFF338
:1028D0005F8F044B0021196082F310887047C04657
:1028E00000ED00E0240100D010B5091A04394808B1
:1028F000090B05D14005400D044B184380B210BDB3
:10290000034B044A8C210448FFF79CFE00E0FFFFC4
:1029100080B100108CB3001090B1001010B5091AEE
:1029200004394C08090B08D14905490D064A1143E1
:102930000180064B2343438010BD054B054A94217B
:102940000548FFF77FFEC04600F0FFFF00F8FFFFDD
:1029500080B1001060B3001090B1001001238340DB
:10296000034A10681840431E9841C0B27047C046E1
:1029700000E100E0002904D0034B1860034B18600D
:102980007047034B1860FBE780E200E000E100E0E5
:1029900080E100E010B5012383401800FFF7EAFF53
:1029A00010BD0000024B9B6810308000C05870477B
:1029B00000ED00E070B504000D00EFF3108672B674
:1029C0000C4B1B68002BFBD0BFF35F8F2000FFF781
:1029D000E9FF094B984201D0A84205D132002900F5
:1029E0002000FFF76DFF70BD044B054A70210548BC
:1029F000FFF728FE240100D0CD010010D0B1001057
:102A0000A8B3001090B10010F0B5CE46474680B58F
:102A100083B006000D00EFF3108872B6574B1B68A9
:102A2000002BFBD0BFF35F8F554B9A6834001034F6
:102A3000A300D758534B9F4207D0AF4200D19BE031
:102A40000197514BFB1A2F2B09D942463900300010
:102A5000FFF736FF03B0C0BCB946B046F0BD30004A
:102A6000FFF77CFF814600213000FFF793FFBFF3A3
:102A70005F8FFDF7F8FB002801D0844219D10123B4
:102A8000019C9C43230040495B1A5B4148495943E0
:102A9000090D49B20022A368AB4212D00622A25609
:102AA000002A0DDB53009B189B002200364CE418D3
:102AB000F1E72021354B364AFF313648FFF7C2FD9A
:102AC0002200AB4251D106256557002D39DB6B0042
:102AD0005B199A002C4B9B189A68A260DA79E27114
:102AE00006229A56A2719B795BB2002B10DABD20A8
:102AF0000002A0806B005B199B00234AD318264A72
:102B000011789971157049463000FFF743FF9CE733
:102B1000201D6B005B199B001B4A9B181A1D9B888C
:102B2000D90A1C2907D15B055B15023359005118DE
:102B3000FFF7DAFEDDE7194B194A9A211548FFF72E
:102B400081FD00280CD1002A08D0FF239371154B7A
:102B50009380114B1A78A2711970D4E7094FF8E7E6
:102B6000201D1149FFF7DAFECDE7AA210F4B084AD5
:102B700049000848FFF766FD024F66E7240100D0D0
:102B800000ED00E0CD01001084020020E4B200104E
:102B900078B3001090B10010E5100020CCB2001006
:102BA00098B3001000BDFFFFBE02002008B3001064
:102BB000AAAA000010B5032304009C43064A9446C9
:102BC000644422681840C000FC3383409A431300D9
:102BD00081400B43236010BD00E400E070B50400A9
:102BE000012606432D4BF31A2F2B28D8FDF73BFB6C
:102BF00000282BD0EFF3108C72B6294B1B68002BEA
:102C0000FBD0BFF35F8F2300244D5B1B5B412E4D38
:102C10005D432D0D6DB2234B9B6880001B58B34262
:102C20001BD00022032A32D853009B189B001B495B
:102C3000CB189B795BB2AB421FD00132F2E7722115
:102C4000194B1A4AFF311A48FFF7FCFCBA21194BFD
:102C5000164A49001648FFF7F5FC124B9B68164AC6
:102C60001A50164B1A78A2711D70BFF35F8F0C4B70
:102C700000221A608CF3108870BD08005300991868
:102C800089004118FF268E710D4A8A80E9E7862166
:102C90000C4B064AFF310648FFF7D4FC84020020A3
:102CA000240100D000ED00E010B3001044B3001088
:102CB00090B1001038B30010CD010010E5100020D5
:102CC00000BDFFFF54B00010AAAA000010B50024F8
:102CD00004E080212000FFF76DFF01341F2CF8D99C
:102CE00010BD0000F0B5CE4600B504000E009146C0
:102CF0001F000C2001F09AF9050043011B1A9901ED
:102D0000C91AC90009188901484601F08FF9020063
:102D1000103A98235B009A4233D87B1E062B36D894
:102D2000069B013B062B32D8069B9F4235D34B4670
:102D30001A09AA4237D33F04069B1D032F43236879
:102D4000002B36DB234B9C4241D080225201224B88
:102D50001A60224B1A60224B9B6811009943FAD1EA
:102D60002660A060231DC02292011A432123136014
:102D70002368002BFCDAE7600823136080BCB946A7
:102D8000F0BD184B184A16211848FFF75BFC184B8A
:102D9000154A19211548FFF755FC164B124A1F21F9
:102DA0001248FFF74FFC144B0F4A22210F48FFF740
:102DB00049FC22683F231340B342C3D1A3681B05DB
:102DC0001B0D8342BED1E368002FBBD1D6E7802222
:102DD0009201BCE700C0024000E0004000F000406B
:102DE00000C00040C4B30010A0B40010E0B3001055
:102DF00020B400106CB4001084B4001080239B0039
:102E00000343014AD362704700800540064BAA2263
:102E100012011A602F22DA60044B054A1A60024B35
:102E20005B68002BFBDA7047004002400060024004
:102E300000B0FA00704710B5002802D00B6849684E
:102E4000984710BD0100002007E083001B185B00BD
:102E5000501C08601078C01830380A681378303B6E
:102E6000DBB2092BF1D97047F0B5DE4657464E4626
:102E70004546E0B583B093461F000C9B9A460D9CD7
:102E80000E9B99460F9B9B0703D0B8460F00060088
:102E900022E00192A34688464E46B9460700B44256
:102EA00007D2551C4B4641462020B84701342A0022
:102EB000F5E73D004F465C46019B9B46B1464646C2
:102EC000B84637002E0007E0013C551C5346185DFC
:102ED00043463900B0472A00002CF5D135003E00AA
:102EE00047460F9B9B0707D4100003B0F0BCBB46BE
:102EF000B246A946A046F0BDB0464E46B9462F00A0
:102F00005D46531BB342EFD2541C4B464146202032
:102F1000B8472200F5E7F0B5CE46474680B585B004
:102F2000944698460C9D0D9C0EAB1B789946109AC2
:102F3000119B129EB7071CD4002B0CD0F7070AD5A3
:102F40004F46002F02D10C37374204D0013B02E03C
:102F500030272F550134944201D21F2CF8D9F7079E
:102F600007D59C4205D21F2C03D830272F5501349A
:102F7000F5E7F70615D5770505D4002C03D0944264
:102F800024D09C4222D00F9A102A2BD00F9A102ABC
:102F900030D00F9A022A35D01F2C02D830222A5561
:102FA00001341F2C05D84A46002A31D02D222A553B
:102FB0000134039602930194009543466246FFF75D
:102FC00053FF05B0C0BCB946B046F0BD621E012C2F
:102FD00006D00F9F102F01D01400D4E7023CD2E797
:102FE0001400D0E7B206D1D41F2CCFD878222A55AE
:102FF0000134D1E7B206CCD51F2CCAD858222A55A5
:103000000134C9E71F2CC7D860322A550134C3E701
:10301000720703D52B222A550134CAE73207C8D5D7
:1030200020222A550134C4E7F0B5DE4657464E4605
:103030004546E0B593B081468A46089209931CAB99
:1030400010CB1B789B461E9D219B9846002C03D1DC
:10305000102342469A4390468023DB0046461E409A
:1030600042461A4212D0002C22D000260EE0303305
:10307000D9B2771C0AAB99552900200000F0D6FF81
:10308000AC4216D31F2F14D83E00040029002000A4
:1030900000F0CCFFCBB2092BE9D94246920605D508
:1030A0004121C918C9B20A39C9B2E2E76121F8E77A
:1030B000270043460693209B05931F9B049303958B
:1030C0005B46029301970AAB0093099B089A51460D
:1030D0004846FFF720FF13B0F0BCBB46B246A946F6
:1030E000A046F0BDF0B5DE4657464E464546E0B533
:1030F00095B0089009910A920B931E9E1F9C20ABDD
:103100001B789B46229B9946239D269B9A4633001B
:10311000234303D1103352469A4392468023DB0067
:1031200057461F4052461A4219D0330023432DD030
:10313000002714E03033DAB27B1C98460CABDA552A
:103140004A462B003000210000F0B2FFA5421FD8F4
:1031500019D043461F2B1BD8474606000C004A4691
:103160002B003000210000F0A3FFD3B2092BE1D9DE
:103170005246920605D54122D218D2B20A3AD2B2AC
:10318000DAE76122F8E7B145E3D901E00023984688
:1031900053460693259B0593249B04934B46039328
:1031A0005B460293434601930CAB00930B9B0A9A38
:1031B00009990898FFF7AFFE15B0F0BCBB46B246C0
:1031C000A946A046F0BD0000F0B5DE4657464E4683
:1031D0004546E0B591B083468A460C9298461A9CC3
:1031E00008941B9D099522002B002000290001F066
:1031F000F4F9002800D0E5E001225242D74B20002C
:10320000290001F0E5F9002800D0DBE0012252425C
:10321000D34B2000290001F0C5F9002800D0D1E0EF
:1032200000220023089E3000099D290001F0BAF910
:10323000002800D0DDE008980999069007918023C6
:10324000DB001E9A1A400D921E9A1A4201D10623E3
:103250001C930698079904000D000A00060002431B
:1032600000D1D1E0080D4005400DBE4CA44660449D
:103270000A03120BBC4B13431F0001F0C1F9BB4AF8
:10328000BB4B01F044F9BB4ABB4B01F019F90400F8
:103290000D000022B94B3000390001F008F9B84A9E
:1032A000B84B01F034F902000B002000290001F0B6
:1032B00007F901F0BDF9814601F0A2F904000D0003
:1032C000B14AB24B01F023F90022B14B01F0F8F8FA
:1032D00001F0AEF90600AF4AAF4B2000290001F023
:1032E00016F904000D00300001F08AF9AB4AAC4B2E
:1032F00001F00DF902000B002000290001F0D7F8C1
:1033000004000D0002000B0001F001F90A900B917E
:10331000A44BF31800261F0522002B0020002900D3
:1033200001F0CEF80E900F9122002B00002080219A
:10333000C90501F0BCF804000D0000229A4B0A9860
:103340000B9901F0C6F80022984B01F0B9F8020081
:103350000B000A980B9901F0BCF80022944B01F085
:10336000AFF802000B000A980B9901F0B2F80200C6
:103370000B002000290001F0A3F802000B000E98BA
:103380000F9901F0A6F80022774B01F099F832006E
:103390003B0001F0BCF806000F0004000D00069A87
:1033A000079B01F015F9002830D001235B429C46B1
:1033B000E14400227D4B3000390001F08AF804001E
:1033C0000D0023E01E9B04931D9B03931C9B029303
:1033D000089A099B0092019343460C9A514658461D
:1033E00000F0FCF811B0F0BCBB46B246A946A046BE
:1033F000F0BD0023002406930794069680231B0645
:103400009C46654407951AE7002399464B4663336B
:10341000C62B1ED804261E9B1B0526D52B00234336
:103420000FD0644A644B0698079901F0C9F8002848
:1034300079D00022614B0698079901F0B3F8002873
:1034400071D01C9B4B4506DD4A46981A431E1C93BF
:1034500003E00526DFE700231C938023DB001E9A90
:103460001A431E920026002399461D9B9E4264D259
:103470009F1B02231E9A1A400A921E9A134202D0E0
:10348000002E00D000274B46002B07D022002B0037
:103490000698079901F01DF8069007910022002375
:1034A0000898099901F07EF8002848D1444B1E9AEB
:1034B0001340049303971C9B0293069B079C009365
:1034C000019443460C9A5146584600F087F8002E66
:1034D00000D187E71E9B9B063DD54525441C4346EE
:1034E000020051462800D8474B46DA179B18534034
:1034F00005220592013E0496002203920A320292AE
:103500004A46D00F01900093434622005146584648
:10351000FFF78AFD0A9B002B00D163E702005F469C
:103520000C9E1D9D54E01C9B002B9ED00D9B002BE0
:103530009BD01C9B013B1C9397E7002799E7069CB7
:10354000079D2200290080200006844661440B006C
:1035500006920793AAE76525C0E7C046FFFFEF7F05
:10356000FFFFEFFF01FCFFFF0000F03FFB799F50E2
:103570001344D33FB3C8608B288AC63F0000F83F8E
:1035800061436F63A787D23F71A379094F930A40C4
:103590000000E03F1655B5BBB16B0240EF39FAFEB3
:1035A000422EE63FFF03000000002C4000002440B4
:1035B000000018402D431CEBE2361A3F80842E4158
:1035C000FFF7FFFF541C434651462020B847220016
:1035D000931BAB42F6D3100004E7C046F0B5DE46BD
:1035E00057464E464546E0B595B00690079193463E
:1035F0009946209F1E9A1F9B1000190000F0EDFFB6
:10360000002831D101225242BF4B1E981F9900F071
:10361000C9FF002837D101225242BC4B1E981F9986
:1036200000F0D6FF00283DD10022B94B1E981F990B
:1036300000F0CEFF002850D10022B64B1E981F99F3
:1036400000F0B0FF002848D1002200231E981F99E7
:1036500000F0A8FF002850D100239846229B5B056C
:1036600000D4B6E0002458E0229B0393219B0293F0
:1036700003230193A84B00934B465A46079906989B
:10368000FFF7F2FB0EE1229B0393219B029304239D
:103690000193A24B00934B465A4607990698FFF7B1
:1036A000E3FBFFE00423229A1A4022990B4210D038
:1036B0009B4B002A0FD00422229903912199029159
:1036C000019200934B465A4607990698FFF7CCFBA8
:1036D000E8E0944BEDE70322EEE7229B0493219B65
:1036E000039302971E9B1F9C009301944B465A46DE
:1036F00007990698FFF768FDD4E01E9A1F9B0020EB
:10370000002100F0D4FE1E901F9101239846A5E7EA
:103710000CAB30221A55013F01341F2C01D8092F60
:10372000F6D81E981F9900F083FF050000F068FF8F
:1037300002000B001E981F9900F0B9FEFA007A4BA8
:103740009B181A685B680A920B9300F0E0FE0890E1
:10375000099100F091FF060000F04EFF02000B00FF
:103760000898099900F0A3FE0890099100226F4B78
:1037700000F02EFF00282ED00136300000F03CFF74
:1037800002000B000A980B9900F012FF002801D0EC
:1037900001350026002F2CD1280000F031FF020057
:1037A0000B001E981F9900F082FE06000F000022F9
:1037B0005E4B00F0F7FE002846D100225B4B300044
:1037C000390000F005FF00283ED1EB073CD501355C
:1037D0003AE0062746E70022544B0898099900F082
:1037E000E1FE0028D6D1002E01D0F307D2D5013654
:1037F000D0E7AA461F2C11D8013F0A21300000F063
:1038000015FC651C30310CAB19550A21300000F055
:103810000DFC092E0ED906002C00EBE755461F2C97
:103820000CD87B1E002F09D00CAA302111551F0087
:103830000134F4E72B0055461C00F0E71F2C03D899
:103840000CAB2E221A5501341F2C10D80A21280047
:1038500000F0C4FB661C30310CAB19550A2128005E
:1038600000F0BCFB051E01D03400EDE7340003235B
:10387000229A1340012B1CD01F2C06D84346002B44
:1038800032D00CAB2D221A550134229B0393219B7D
:10389000029301940CAB00934B465A460799069845
:1038A000FFF7E2FA15B0F0BCBB46B246A946A04607
:1038B000F0BD219B002B13D04346002B02D10C33CB
:1038C00013420FD0219B013B2193190003E00CAB65
:1038D00030221A5501348C42CED21F2CF7D9CBE7B7
:1038E0002199F8E72199F6E7229B5B0704D50CABF9
:1038F0002B221A550134C8E7229B1B07C5D50CABF8
:1039000020221A550134C0E7FFFFEFFFFFFFEF7FD2
:1039100065CDCD4165CDCDC1B8B40010BCB40010AB
:10392000B0B40010ACB40010A8B600100000E03F26
:10393000F0B5DE4657464E464546E0B593B0824662
:103940008B4690461193002900D1EBE200275546A3
:10395000119B1878002800D1E7E2252809D07C1CAB
:1039600043463A005946A847119B0133119327005B
:10397000EEE7013311930024119A11780B00203BDC
:10398000D8B2102803D88300D048C3589F460B00F4
:10399000303BDBB2092B2CD92A292FD000230A93E4
:1039A000119B1A782E2A39D000239A46119A13783F
:1039B000683BD9B2122976D88B00C549CB589F46AF
:1039C00001231C4301321192D6E702231C4301322A
:1039D0001192D1E704231C4301321192CCE7082352
:1039E0001C4301321192C7E710231C43013211928C
:1039F000C2E711A8FFF726FA0A90D1E71C9B1A1D0F
:103A00001C921868002804DB0A90119B0133119363
:103A1000C6E702231C4343420A93F6E78022D20002
:103A200014435A1C11925A781300303BDBB2092B15
:103A300004D92A2A07D000239A46B7E711A8FFF72E
:103A400001FA8246B2E71C9B1A1D1C9218680028D6
:103A500004DB8246119B01331193A7E70020F8E7AE
:103A600080235B002343511C119152786C2A01D0B2
:103A70001C0018E0C0239B001C430131119112E08F
:103A800080232343511C11915278682A01D01C00D5
:103A900009E0C0231C430131119104E080235B0045
:103AA0001C4301321192119B18780300253BDAB2B6
:103AB000532A00D92CE29300864AD3589F4680238C
:103AC0009B001C4301321192EDE780235B001C43F5
:103AD00001321192E7E7782809D0582838D06F28AA
:103AE00038D0622838D010239C430A2600E01026E4
:103AF000582833D0692803D0642801D00C2294437D
:103B0000630501D50122944369282AD0642828D06E
:103B1000A30500D59FE0E30500D5B8E0630600D417
:103B2000CAE01C9A111D1C911168FF220A400594DD
:103B30000A9B049353460393029600230193009239
:103B400043463A0059462800FFF76EFA070027E07F
:103B50001026CDE70826CBE70226C9E7202214432A
:103B6000C8E7A30520D4E30550D4630666D51C9AA4
:103B7000111D1C911168FF220A40D317D11859401A
:103B800005940A9B0493534603930296D20F019225
:103B9000009143463A0059462800FFF745FA0700CE
:103BA000119B01331193D3E61C9BDA1D07218A4335
:103BB000110008311C91116853689C46DB170C9367
:103BC0000D930C9A0D9B100048400E906246534096
:103BD0000F930E980F990C9A0D9B801A99410E9095
:103BE0000F9108940A9B079353460693049600236B
:103BF00005936346DA0F02920090019143463A0022
:103C000059462800FFF76EFA0700C9E71C9A111DF4
:103C10001C911268D317D118594005940A9B04933C
:103C2000534603930296D20F0192009143463A0005
:103C300059462800FFF7F8F90700B1E7230605D534
:103C40001C9A111D1C910023D25E96E71C9A111D2F
:103C50001C91126891E71C9BDA1D07218A43110011
:103C600008311C9108940A9B0793534606930496C7
:103C7000002305930293136854680093019443460C
:103C80003A0059462800FFF72DFA070088E71C9AEA
:103C9000111D1C9105940A9B0493534603930296AD
:103CA000002301931368009343463A0059462800C5
:103CB000FFF7BAF9070073E723060DD51C9A111D0B
:103CC0001C9112681204120C31E7C046C4B40010F3
:103CD00008B5001054B500101C9A111D1C911268F3
:103CE00025E746281AD01C9B0733072293431A0066
:103CF00008321C9204940A9A0392524602925C681B
:103D00001B680093019443463A0059462800FFF788
:103D100065FC0700119B0133119319E620231C4316
:103D2000E1E7672801D0472802D180231B011C430B
:103D3000452801D0472801D120231C431C9B073371
:103D4000072293431A0008321C9204940A9A0392A1
:103D5000524602925C681B680093019443463A0005
:103D600059462800FFF730FA0700119B01331193E1
:103D7000EEE502231A002240924623421FD001247E
:103D80001C9B1A1D1C927A1C9146187843463A00D7
:103D90005946A8475346002B16D1119B0133119366
:103DA0004F46D5E5561C434659462020B8472300C8
:103DB00032005C1C9D42F5D83D001700E0E701236E
:103DC0003A002F000A9DF4E74A46A9460A9D06E0FC
:103DD000571C434659462020C84734003A00661C09
:103DE000A542F5D84D469146D7E71C9B1A1D1C925B
:103DF0001B6899465346002B00D1013B4E4601E01B
:103E0000013613003278002A02D05A1E002BF7D157
:103E10004B46F21A10928023DB0026001E401C4203
:103E200003D0524501D95346109302231A00224071
:103E30000B92234205D03A0037004C46A94655461E
:103E400020E03A00109B5F46B3462E0006E0551C6A
:103E5000434639002020B04723002A005C1C0A9901
:103E60009942F4D835005E46BB46109437004C4664
:103E7000A946554606E01D000134561C43465946E6
:103E8000C84732002078002804D0002FF4D06B1EE1
:103E9000002DF0D117004D460B9B002B03D1119B39
:103EA0000133119354E50A9F109B06E0561C4346CC
:103EB00059462020A847230032005C1C9F42F5D8B9
:103EC0001700ECE721231C431C9B1A1D1C921B6846
:103ED00000930594082304935346039310230293FD
:103EE0000023019343463A0059462800FFF79CF807
:103EF0000700119B013311932AE57C1C43463A00CD
:103F000059462520A847119B0133119327001FE52F
:103F10007C1C43463A005946A847119B0133119334
:103F2000270015E50A4B9A4610E5AA46474502D3F5
:103F300043465A1E00E03A00434659460020D04707
:103F4000380013B0F0BCBB46B246A946A046F0BD4F
:103F5000352E001000B585B0029003910121009329
:103F600013004A4202A90248FFF7E2FC05B000BD77
:103F7000372E001001480421014B1847D0020020C1
:103F8000A53F001010B5010018231B8814221088CB
:103F9000984710BD10B5010018231B881622108801
:103FA000984710BDF0B5C64600B507000E000025C5
:103FB0000123984600E00135B5420AD2AC003C1915
:103FC0002068FFF7DFFF20600028F4D10023984627
:103FD000F1E7404680BCB846F0BD0000124A936F3E
:103FE0009B0815D29066D166002905D0FFE7FFE750
:103FF000FFE7516F106F704704B580210906C217A3
:104000005140002800D0C84306F006FD002104BD41
:10401000F0B5146E556E576F166FFFF7E3FF146619
:10402000556657671667F0BD000000D0114A936FC0
:104030009B0813D210665166002905D0FFE7FFE701
:10404000FFE7516F106F704704B5002801D00020C2
:10405000C04306F0E1FC002104BDC046F0B5146E7B
:10406000556E576F166FFFF7E5FF14665566576775
:104070001667F0BD000000D094464E4A926F920839
:10408000624601D230E0C046F0B54A4EB56F6D08C9
:10409000FCD3346E756E776F366F00F025F894465A
:1040A000444A14665566576716676246F0BDC046B7
:1040B0009446404A926F9208624601D258E0C04648
:1040C000F0B53C4EB56F6D08FCD3346E756E776FEE
:1040D000366F00F04DF89446364A146655665767B9
:1040E00016676246F0BDC046002B24DB11D00029C4
:1040F0003EDA00B5C943404200D1013100F038F842
:10410000C943404200D10131DB43524200D1013367
:1041100000BD002AEBD1002801D1002905D00020E4
:10412000C90FC90701D1C043410800B506F06CFCB6
:104130000022002300BD00B500290ADBDB43524208
:1041400000D1013300F014F8C943404200D10131DD
:1041500000BDC943404200D10131DB43524200D18E
:10416000013300F005F8DB43524200D1013300BDBA
:10417000002923D1002B18D1002A0CD0BC460D4FAA
:1041800038667A6600210023FFE7FFE7FFE77A6FD2
:10419000386F67467047002801D00748010000B516
:1041A00006F032FC0022002300BD02000B000020BC
:1041B00000217047000000D0FFFFFFFF002B00D060
:1041C000BDE0130C26D1002AE7D080B4104F396629
:1041D0007A66FFE7FFE730B4040C7B6F396F1B048E
:1041E00023433B66FFE7FFE7FFE7C04684B27B6FF0
:1041F0003D6F1B0423433B66FFE7FFE7C0460023F8
:104200002C042D0C7A6F386F00196941B0BC7047CF
:10421000000000D0F0B594460025140E01D1120222
:104220000835140F01D112010435940F01D1920009
:104230000235D40F01D152000135D40B0134254F82
:104240007C66254C3C660E0C93B2FFE7FFE7FFE768
:104250003C6F6643360C7703BE467343DF0B5B044B
:10426000C01AB941130C7343DB18C91ACE08664350
:10427000360CB64493B273431F0F1B01C01AB941E9
:10428000130C73431F0B1B05C01AB941860D8F0217
:104290003E436643360C092D24DB520A7243801AD2
:1042A0007703460A6643360C16235B1BDE40DF406D
:1042B000BF1964466643821B70460435063301000D
:1042C000D940A840C01900D30131A24206D2002330
:1042D000F0BD0000000000D0FFFFFFFF121B013007
:1042E000F3D3F1E709277F1BFE406446A2B2724375
:1042F000801A00D20139220C7243130C1204821A64
:1043000099410B007046043513370100F940A8406D
:10431000801900D30131002B02D1A2420AD2F0BD94
:10432000013000D30131121BFAD2013BF8D1A24275
:1043300000D2F0BD013000D30131121BF7E7F0B518
:104340001C0C00D080E00CB400251C0A04D11B0218
:10435000160E3343120208351C0B04D11B01160F35
:104360003343120104359C0B04D19B00960F334359
:1043700092000235DC0B02D192185B4101351C0022
:10438000971864410134464F7C66464C3C660E0CDF
:10439000FFE7FFE7FFE7C0463C6F6643360C770355
:1043A000BE4697B27743C01B00D20139C01B00D272
:1043B00001399FB27743C91BC91B170C77437E0491
:1043C000FF0B801BB941CE086643360C0C2D33DB46
:1043D000B644120B1F053A431B0B97B27743C01B21
:1043E00000D201399FB27743C91B170C77433E04B3
:1043F0003F0C801BB941860D8F023E43664329273F
:104400007F1BFE400C3D7746AF40BF1930BCA2B2C7
:10441000ABB272437343801A9941220C7243130C5E
:104420001204801A994102000B000137001BA941B8
:10443000F9D2781E0021F0BD0C277F1BFE40774685
:104440007F0BAF40FF19E0E700245D1C07D0144F3D
:104450007D663966FFE7FFE7FFE7FFE73C6F95B250
:104460009EB265436643401BB141150C1E0C65436B
:10447000664336042F0C3E432D04401BB141994244
:1044800004D202000B0020000021F0BD01D19042B7
:10449000F7D3801A994101349942F2D3F6E700002C
:1044A000000000D0FFFFFFFF48404140484018B4E3
:1044B0001B4B5B68FC46019308BD04DF9B47001063
:1044C00018B4174B1B68FC46019308BD00DFA547D5
:1044D00000109446134A926F920809D2624618B4AB
:1044E0000F4BDB68FC46019308BD0CDF5D4A0010F2
:1044F0000C4AF0B5146E556E576F166F6246FFF793
:10450000EEFF084A1466556657671667F0BD18B483
:10451000034B9B68FC46019308BD08DF014900106E
:10452000C40E0020000000D0FFB550404240504073
:1045300059404B40594000E0FFB5154F4C00640D09
:1045400003D0BC4204D10C0314D80020090D090586
:104550005C00640D03D0BC4204D11C030AD80022C5
:104560001B0D1B0501264B4009D44B4003D58B4244
:1045700000D18242FFBD9942FCD19042FFBD0B4366
:10458000DB1803431343F5D0C9434918FFBD0000AE
:10459000FF07000000B5FFF7CFFF01D0002000BDEE
:1045A000012000BD00B5FFF7C7FF804100BDC04638
:1045B00000B5FFF7C1FF01D9002000BD012000BDFB
:1045C00000B5FFF7B1FF01D9002000BD012000BDFB
:1045D00000B5FFF7A9FF804100BD012040054A005A
:1045E000121804D85A00121801D800207047012070
:1045F00070470020704700000021002805D1704757
:10460000C1174840401AFAD0C90713B5064B1B68BA
:1046100098470CBC441CA2401005120B0349091B0F
:1046200009051943114310BDC40F00201F040000E9
:1046300010B54C00620D8023D218DB00D21A5B0546
:104640007E2A10DD9E3A13DACC1709034908194374
:104650005242D140640001341532202A05DAD0409C
:104660000843604310BD002010BD0846604310BDE4
:10467000C80FC018013810BD18B4044B5B6AFC4663
:10468000019308BD24DF894C00100000C40E0020F7
:1046900018B4044BDB6FFC46019308BD7CDF054D6D
:1046A00000100000C40E002070B513231C78012CEC
:1046B0000FD0012C0FDC022C02DC1D4A1D4B9A642A
:1046C00070BD99001A481B4A885001331F2BF8D936
:1046D000EFE70023FAE71848FFF75CFC05001748EE
:1046E000FFF758FC023803789B007F2B19DD8022EE
:1046F0002900104800F04AFC022CDCD1104B1A882B
:10470000B5231B029A4209D10E4B1A880E4B9A42CE
:1047100004D10E4B1A880E4B9A42CCD00020FDF7E4
:10472000AFFF0C4B0C4A30210C48FDF78BFFC04605
:1047300061470010C40E002053440000534600009F
:1047400054380000D8380000494600009C3800006A
:1047500059460000F8B60010A0B7001058B7001076
:1047600007B56046002800D100BE01880A0A023061
:10477000DF2AFAD1C9B2820804D302884088000433
:10478000104300E00068024A5050039007BD00004B
:10479000C40E00200FB403BC0CBCF0B50124E40728
:1047A000634000E0F0B50C0DCF0F661E3605891B87
:1047B000640503D3C943404200D30131640D03D0E3
:1047C000661CF60A07D0E41B00207F00791C8907CD
:1047D0008912803C24031D0DDF0F6E1E36059B1BC6
:1047E0006D0503D3DB43524200D301336D0D03D07B
:1047F0006E1CF60A07D0ED1B00227F007B1C9B0776
:104800009B12803D2D032F1B661B58D4A446202EDF
:1048100046DA20371400BC401D00BD40F240334151
:104820002A4380185941CB0F05D0C943C043002209
:1048300064425041514162464D0D28D10D0D07D1C2
:1048400000281FD0241940414941013A0D0DF9D0EB
:10485000640006D3013000D30131002C01D140089F
:104860004000013A0BD4941CE40A04D1120511440F
:10487000DB071944F0BDD907204B194300E0D907E5
:104880000020F0BD0029DDD1002CDBD1F0BD0132CC
:10489000C6074008CD0728434908002EE1D0D9E7D4
:1048A0003C2E29DA203E40371400BC4000D00124C1
:1048B000F24014431A00BB401C43D317ACE7AC468C
:1048C000202F08DA20360400B4400D00B540F8402F
:1048D00039412843A5E73C2F0CDA203F403604003D
:1048E000B44000D00124F84004430800B1400C4318
:1048F000C117EAE710001900002494E70000F07FD8
:10490000F0B50C0D661E3605891BE60A6405640DBC
:1049100002D0651CED0A04D0002001210905803C6D
:104920002403A4461C0D671E3F05DB1BE70A640534
:10493000640D02D0651CED0A04D0002201231B0582
:10494000803C24037740644497B484B296B27443A5
:10495000070C7E43150C6F4380B26843361802D3B0
:10496000012000043F183004350C00197D418446B5
:1049700088B29AB250430C0C62431F0C7C438EB237
:104980007E43921902D301263604A4191604170C8B
:104990003618674101BC81B29AB25143040C62439C
:1049A0001B0C5C4380B25843121802D30120000450
:1049B00024181004130C401863412D185E41002088
:1049C000474106BC88B293B258430C0C6343120CA7
:1049D000544389B251435B1802D30121090464187E
:1049E00019041A0C091862416D18564100204741FC
:1049F00018BCF902720D1143F0026A0D1043ED026A
:104A00000A0D03D16D1940414941013B124E9B1BD8
:104A10007600B3420ED26D0007D3013000267141FB
:104A20006646354301D1400840001B05C918E4071C
:104A30002144F0BD0BDA013306D1013004D101313C
:104A40004F0D01D04908F2E7E1070020F0BD013623
:104A500031050020EBE70000FF030000F0B51C0D5E
:104A6000671E3F05DB1BE70A6405640D02D0661C68
:104A7000F60A04D0002201231B05803C2403D02524
:104A80002D060026F6432E661E096E66CE0FF61919
:104A9000B44649004F0D02D07E1CF60A03D0002018
:104AA0000021403F3F033E1BB600B444013F7F0559
:104AB000C91B49082E6F013676089C02950D2543C7
:104AC0007543ED137543AD1301356D10F603761B79
:104AD0000CB4CC02450D2C43A2B2B3B25A43270CFE
:104AE0007B43350C6F43A4B26C431B1902D30124E2
:104AF00024043F191C041D0CA4187D4124196D4188
:104B0000009A91B2ACB26143170C7C432B0C5F430B
:104B100092B25A43A41802D301221204BF182204ED
:104B2000230C52187B41019C6C431B19520ED90176
:104B30000A434401A01A81B2B2B2514303145A434A
:104B4000360C734387B27743D617D21900277E41BC
:104B500036049B191704160C7F185E417316ED1866
:104B6000F301002680337541A90F06D16400690A5C
:104B7000E8055B0A184309D22FE0042294448033ED
:104B80007541A90AA8059B0A184326D3404149410B
:104B90002404009A019B0D005543641B4343E41A0F
:104BA00095B286B27543170C7E43030C5F4392B2F5
:104BB0005A43B61802D301221204BF183204330C30
:104BC00052197B4152429C41002C02D400220130F8
:104BD00051414008CA071043490802B06246D7074E
:104BE0009210084BD218084B9A4203D2120589182A
:104BF000C919F0BD0020002A01DC3900F0BD0133E5
:104C00001905F5E7FD030000FE070000624618CA1B
:104C1000944600291ADAC01861415B463B415C4664
:104C2000B4405246FA40224344464D4662416B41ED
:104C3000904699462B46B3403D41FC401C435246AA
:104C40005B46A241AB4192469B467047C01AA141C8
:104C50004B463B414C46B4404246FA402243544600
:104C60005D4662416B4192469B462B46B3403D41B7
:104C7000FC401C4342464B46A241AB4190469946FC
:104C80007047002000217047002200B5203200F05C
:104C900004F8080000BD000000220B15F1D410B587
:104CA000944600F05DF81414013400DA0021CB17AB
:104CB000134C20476244343A0CD40C2A07DA04001F
:104CC0009140904052422032D440214310BDD843FD
:104CD000D94310BD203207D40C46944052422032B2
:104CE0001141D040204310BD0800C917203203D421
:104CF00052422032104110BD1800190010BD0000B2
:104D0000B54C00104A00520D144BD21A13DDFF2A85
:104D10001EDAD205CB0FDB071A43C300400F09038D
:104D2000490A084310435B0001D301D001307047AA
:104D30004308FBD2704702D0C80FC00770470A0370
:104D400012130132F8D1420F072AF5D1012200E0F7
:104D5000FF22C80F00028018C005704780030000C2
:104D60000A0DCC0F531E1B05C91A520503D3C943A4
:104D7000404200D30131520D03D0531CDB0A07D04F
:104D8000121B00206400611C89078912803A1203FB
:104D9000014BD21A70470000FF0300005143434308
:104DA000C9188C46110C83B24B4310B4040C6143F8
:104DB00092B280B2504362431C041B0C001910BC19
:104DC00059411304120CC01851416144704700004E
:104DD000034BDB6FFC4618477CDF154F00100000CB
:104DE000C80F002070B513231D782A48FFF7D2F8AA
:104DF0000400012D11D0012D09DDA31E1B789B009D
:104E00007F2B40DD80222100234800F0BFF823489B
:104E1000FFF7B8F8224B186070BD542201001E48FD
:104E200000F0B4F81F4B1A881F4B9A421CD1A723DD
:104E30009B011A881D4B9A4216D11D4B1A881D4B97
:104E40009A4211D11C4B1A8894239B019A420BD190
:104E50001A4B1A881A4B9A4206D11A4B1A681A4BE7
:104E60009A4201D1152307E01848FDF709FC990083
:104E70001748094A885001331F2BF8D9144A064BAA
:104E80001A62DA61B7E7134B134A42211348FDF760
:104E9000D9FBC04653460000C80F00204C33000029
:104EA000C40F0020EE290000C40F0000C20D000056
:104EB000962B0000C0B50000182B0000CC2A000083
:104EC00010B50000FC2C000051ED8764D4B0001038
:104ED000E14E0010B4B7001030B80010E8B7001071
:104EE00007B56046002800D100BE01880A0A0230DA
:104EF000DF2AFAD1C9B2820804D3028840880004AC
:104F0000104300E00068024A5050039007BD0000C3
:104F1000C80F0020C30FDB0741000A0E07D0FF2A8D
:104F200008D00909054A8918194340077047190034
:104F3000002070470249C918FAE700000000003855
:104F40000000F07F10B5040000F096FC002804D0AB
:104F50000419034B9C4200D810BD0248FDF790FB9A
:104F60000000042044B8001010B500F08FFC10BD04
:104F700001480421014B1847E0020020A53F001022
:104F8000014B1B6818470000E0020020014B5B68E2
:104F900018470000E0020020F8B507000D001600D9
:104FA000437C002B02D0002400200CE00368110099
:104FB000280098472DE03B7C10E0022115483B6813
:104FC0009847601C0134B44214DA002CF3DD2B192D
:104FD000013B1B780D3B5A425341DBB22A5D0A2A42
:104FE000F0D1002BEED1A042E7DA211A28183B6855
:104FF0009847E2E7B04203DA311A28183B6898472D
:10500000002E06DDAD19013D2B780D3B5A42534170
:105010003B74F8BDB4B8001070B505000368002BF0
:1050200016D00C4B1C6805E0290004C92000FFF7CE
:10503000B3FFE468002C09D02368002BF9D0064B9D
:105040001B68002BF0D0A342F3D1EDE700232B60C7
:1050500070BDC046A40E0020AC0E002070B5050047
:105060000C000B68802B05D021684B1C2360641852
:10507000257170BD0800FFF7CFFFF5E7F0B583B0ED
:1050800007000E000092019328E0A368002B04D0D3
:10509000310038009847002827DCE468002C06D04F
:1050A000134B1D68002DF0D0A542F6D1EDE701208D
:1050B0000021FCF707FF0099019A0E4B5B6A9A42A8
:1050C00009D80C48806A88420BD29A4201D0012349
:1050D00002E0002300E00023002B04D1064B1C68F3
:1050E000DCE70123F8E70120404203B0F0BDC046F1
:1050F000AC0E002000400540A40E002010B582B088
:10510000D0231B0600241C5701A9074805F08CFC7E
:10511000002806D1019B9C4203D0034805F08CFC7B
:10512000012002B010BDC046B40C002010B50248EA
:1051300005F062FC10BDC046B40C0020F0B5C646B8
:1051400000B582B006000D001700FFF7D7FF8046BC
:105150006B1C02D0184B1C6805E0300000F084FE88
:105160000500F7E7E468002C18D02368002BF9D07D
:10517000124B1B68002B01D0A342F3D12A0031004F
:105180002000FFF709FF002FECD06B46D91D0A2342
:105190000B7001222000FFF7FFFEE3E74346002BE0
:1051A00006D16B1E9D41E8B202B080BCB846F0BD8E
:1051B000FFF7BCFFF5E7C046A40E0020AC0E0020B0
:1051C00010B5030008001100002B05D1044B1A682C
:1051D0005B68FFF753FF10BD01204042FBE7C0466C
:1051E00028AE001010B50B001400012806D10022D3
:1051F00021001800FFF7A2FF200010BD012040424F
:10520000FBE700000C4B1A68130001E01A00DB6892
:10521000002B08D08342F9D1002903D1DB68D36089
:105220000023C36070470029FCD0002A01D0D06061
:10523000F8E7014B1860F5E7A40E002010B5064B07
:105240001C6801E09847E468002C03D06368002BD9
:10525000F8D1F8E710BDC046A40E002070B50500D7
:1052600000F002FE0400012201002800FFF766FFA3
:10527000FFF7E4FF200070BD70B5A2B004000E007F
:10528000FFF73CFF05008422002101A8FFF778FE0C
:105290003300220001A90848FEF75CFE040001A8C3
:1052A000FFF7BAFEFFF7CAFF002D02D1200022B09F
:1052B00070BDFFF73BFFF9E75D5000100FB400B57C
:1052C00083B004A901C90191FFF7D6FF03B008BC60
:1052D00004B0184710B500F085F810BDF0B583B0E4
:1052E00005000E0000240FE06B46D91D0D230B7046
:1052F0000020002816D193699B06FCD40B7813601C
:1053000001300131F5E70134B44219DA0D4B1A6866
:105310002F5D0D4BD31859424B415B000B495B5E2F
:10532000BB42E1D06B46D91D0F7000200028EAD1A6
:1053300093699B06FCD40B78136001300131F5E7CB
:1053400003B0F0BDE01000200080FCBFDC100020A6
:10535000F0B583B006000F00002004E06B46073371
:105360001B7823702800B84215DA0E4B1A6893692F
:105370001024210019401C420DD1451C34186B46E5
:10538000D81D0029EAD19369DB06FCD413680370A9
:1053900001310130F5E7002801D003B0F0BD03383A
:1053A000FBE7C046E010002070B515001C000B4B59
:1053B0001860FCF701F8002D06DA002C09DA01214B
:1053C0000748FFF71FFF70BD02212800FBF71CFFF5
:1053D000F3E702212000FBF717FFF0E7E0100020C1
:1053E000F002002010B5064B1B78064B1B78E1211C
:1053F0000123002249020448FFF7D6FF10BDC04632
:1054000084BE001088BE001000400340F0B5DE46A8
:1054100057464E464546E0B585B0060010001C00D4
:1054200002930EAB1A7803920F9D109F33680022EF
:10543000DA663368596033680132DA66A2460023BF
:1054400098469B4600242BE03279002A31D0012275
:105450002FE00399002901D000212EE001212CE04A
:105460003800A84703000443E4B2002B06D1326899
:10547000526BD20602D4002DF2D1F6E7002B09D1EF
:105480003268802151588B4600291FD1002C2FD122
:10549000C1451ED0002C33D101229446E04401982E
:1054A000D0452DDA029A013A91464246002ACBD0E5
:1054B00000229202C145CCD0002149020A43411C7E
:1054C00001910078316802430A61D4E7526D0124EA
:1054D0000EE0039A002ADDD10AE03800A847030055
:1054E0000443E4B2002B06D13268526B920502D419
:1054F000002DF2D1F6E7002BCCD13268126EC9E74D
:10550000002C09D0002B15D15B46002B16D0DB07F1
:1055100018D45B461B0709D5039B3371404605B081
:10552000F0BCBB46B246A946A046F0BD02235B4292
:105530009846F1E701235B429846EDE702235B4280
:105540009846E9E702235B429846E5E7F0B5DE4678
:1055500057464E464546E0B583B0050091469A460B
:105560000CAB1B7801930D9E0E9F03680022DA6638
:105570000368596003680132DA66D346002398460F
:1055800000242AE02979002933D0012131E0019853
:10559000002801D0002030E001202EE03800B04784
:1055A00003000443E4B2002C0DD12A68926F002A54
:1055B00009D12A6880215158546D621E9441E4B289
:1055C000002EEBD1EFE7002C1ED12A681269494664
:1055D0000A7001229446E044E144D84514DA524668
:1055E000541E2A68516F1029FBD041460029C9D0AA
:1055F000002189024445CAD000204002084380218E
:10560000490001431161D4E7002C04D0002B0CD0D9
:1056100001235B429846019B2B71404603B0F0BCCE
:10562000BB46B246A946A046F0BD02235B4298465F
:10563000F1E70000F0B5D6464F464646C0B5050036
:105640000C000520FDF736F90600600880192100DE
:10565000FEF7ECFC070043009946814405214846CB
:10566000FEF7E4FC80463B1A9A46284B9C4224D81D
:10567000700080192649FEF7D9FC441C4346023BC2
:10568000A34221D32B680022DA6629680A68042322
:10569000534006221A4080235B010B431A602B689B
:1056A0005246DA612B6842461A624B464F2B11D99B
:1056B00050214846FEF7BAFC0DE0700080191549EC
:1056C000FEF7B4FC441CD9E7134B144A5F2114487D
:1056D000FCF7B8FF0120A0232A68D0502A681100E7
:1056E0007C31D06F44402404240C80235B010B43A5
:1056F0001C602B680122DA6639003000FEF796FC48
:10570000E0BCBA46B146A846F0BDC0463F420F00D5
:105710008096980040787D01F8B8001058B90010C4
:1057200018B9001010B5114B98421CD01022104B24
:105730001A60104B1A60104B9B6814009C43231E88
:10574000F9D104710268D46602686624FF341460DB
:105750000268D36302689363883303220468E250CB
:10576000FFF768FF10BD0822E1E7C04604030020F0
:1057700000E0004000F0004000C0004030B585B0BF
:1057800008AC25780024029401940095FFF73EFEB2
:1057900005B030BD30B585B008AC25780024029442
:1057A00001940095FFF7D2FE05B030BD70B50B0C2B
:1057B0000024150C002B28D1002D37D18BB291B2CB
:1057C000594300F06DF8051E19D00300083B5A68D4
:1057D00003239A43043A242A13D80300132A0AD92C
:1057E0000460446008331B2A05D98460C460242AFD
:1057F00025D00300103300221A605A609A602800F6
:1058000070BD0021FFF7BCFBF9E7002D11D1151C7D
:1058100089B292B24A43ADB29BB26B43110C5B1892
:10582000190C06D1190492B21143CAE72B1C0D1CA6
:10583000EEE700F009F80C2300250360DFE7030022
:10584000046118334461D6E7014B18687047C046BD
:105850000C0300200EB400B582B003AB0100054874
:1058600004CB0068019300F02DFB02B008BC03B02C
:105870001847C0460C03002010B5034B0100186800
:1058800000F00EF810BDC0460C03002010B5034B0D
:105890000100186803F03AFC10BDC0460C0300205C
:1058A000F0B54E464546DE465746E0B50D000B3591
:1058B000060083B0162D22D8102900D9B2E000F0DE
:1058C000B1FA102518230220CC4FFB181A005C688F
:1058D000083A944200D1B5E0032362689A4313006A
:1058E000E268A168CA6091600122E318596830003B
:1058F0000A435A6000F09EFA2000083095E0072322
:105900009D4300D58EE0A94200D98BE000F08AFAD1
:10591000FC235B009D4200D2A7E1680A00D18BE026
:10592000042800D97AE138239846A8098044393000
:10593000C100B24F79184C680839A1420ED0032338
:105940009C4604E0002ACBDAE468A14206D0624615
:10595000636893435A1B0F2AF4DD40463A003C69C2
:105960000832944200D178E0032361689943894664
:105970000B00491B0F2900DD7BE17A613A610029A8
:10598000B2DA80229200914500D30FE15909DA087A
:1059900001238B40D2007968D2190B4391687B6058
:1059A000E260A1609460CC60012182109140994234
:1059B00059D80B4205D103229043490004300B42D1
:1059C000FBD003239846C3009946B944CC4682468F
:1059D0006346DC68A44507D12CE1002A00DB35E1F1
:1059E000E468A44500D125E14246636893435A1B0D
:1059F0000F2AF2DD01208046611905436560A06829
:105A0000E5680837C560A86040461043F960B96092
:105A10004860CF6030008F60E25000F00BFA200049
:105A2000083002E00C230020336003B0F0BCBB461A
:105A3000B246A946A046F0BD80213F2340209846AB
:105A4000890076E7DC680230A34200D044E73A00E0
:105A50003C690832944200D086E701217B688210BD
:105A600091409942A5D90323BC6862689A43914644
:105A7000954203D8531B0F2B00DD89E023004B44D4
:105A80005F4A01935F4B93461B681268EB18013223
:105A900000D13DE15C4A944663441B0B1B03009319
:105AA0003000009900F0CEF903008046013300D1A8
:105AB000FAE0019B834200D9F4E0544B00981A00AD
:105AC0009A46126803009446514663440B6001995C
:105AD0001A00414500D151E15B461B68013300D1FA
